:1000000007EF00F0FF00FF0004EF08F011004FEFD2
:1000100001F0116E1E6AD7D0100E69EC01F0010ECE
:10002000F7EF00F09DD0166A100E176E186A196A65
:1000300016C001F017C002F018C003F019C004F098
:1000400038EC01F0400E1626000E17221822192255
:10005000195002E11804ECE383D07F0E026E0168B0
:100060001DEC01F00C6E0CC00DF00E6A0F6A106AE8
:100070000DC010F00F6A0E6A0D6A0DC012F00EC0AE
:1000800013F00FC014F010C015F07F0E026E01685F
:100090001DEC01F00C6E0CC00DF00E6A0F6A106AB8
:1000A0000EC010F00DC00FF00E6A0D6A0D50121246
:1000B0000E5013120F501412105015127F0E026EB4
:1000C00001681DEC01F00C6E0CC00DF00E6A0F6A99
:1000D000106A0FC010F00EC00FF00DC00EF00D6AC8
:1000E0000D5012120E5013120F5014121050151200
:1000F0007F0E026E01681DEC01F012121A6A1B6A73
:100100001C6A1D6A1A50600FD96EDA6A7F0E026E81
:1001100001681DEC01F0DF6E1A2A000E1B221C2262
:100120001D221D501C101B1003E1400E1A5CEAE357
:1001300012C001F013C002F014C003F015C004F0A7
:1001400038EC01F012C001F013C002F014C003F04B
:1001500015C004F0600E056E400E066ED1EC07F07F
:10016000120E69EF01F0120E1E6E120E69EC01F014
:10017000000E69EC01F0400E1E26400E69EC01F005
:100180000DD0150E1E6E150E69EC01F0000E69EC17
:1001900001F03F0E1E263F0E69EC01F01E5069EF84
:1001A00001F0120E69EC01F071EF01F0282A000E47
:1001B00029222A222B22282819E11F0E29182A1069
:1001C0002B10F2E012001150100A01E125D7010AAC
:1001D000C7E0030AC8E0010A01E125D7070A01E1E7
:1001E0003CD7010ACEE0030ADCE0E0D71200056E3E
:1001F000046A05500424026E02C0F6FF0F0EF76E6B
:100200000800F5500BE005500424026E02C0F6FF12
:100210000F0EF76E0800F55069EC01F0042A040493
:10022000026E05500224036E03C0F6FF0F0EF76E38
:100230000800F550D8B41200DCD7036A046A0AD06B
:100240000150031805E102500418D8A401D0000C95
:10025000034A042A9EAAF4D7286A296A2A6A2B6AC2
:10026000ABB402D0ABA202D0AB98AB88AE501200B8
:10027000B79C0150C00BF66E02C0F7FF03C0F8FF39
:10028000940E7F6E550E7E6EAA0E7E6E7F82F28E6B
:10029000B7ACFED7B79C7F947F98F29E120000EE19
:1002A00060F0400EEE6AE806FDE12B6A2A6A296AD0
:1002B000286A000EF86E000187EF07F0949C948E78
:1002C000AC98AC94A796670EAF6EAC8AAB8EAB8839
:1002D0001200016EACA2FED701C0ADFFACB212009D
:1002E000FDD79390930ED01200EF08F01200FF009C
:100F000000426F6F745F312E302E61000000D38C71
:100F1000D38AD388D3849B8C93905EEC01F0246AAF
:100F2000256A266A276A2450600FD96EDA6ADF685C
:100F3000242A000E2522262227222750261025109B
:100F400003E1400E245CEFE3286A296A2A6A2B6ACF
:100F50003F0E241825102610271007E18A80242A26
:100F6000000E25222622272215D0242807E1250459
:100F700026102710D8A402D08A90F1D72428EFE1B8
:100F8000090E251826102710D8A4E9D7246A256A47
:100F9000266A276A026A01681DEC01F009EC00F07C
:100FA000D7D7B79C0150C00BF66E02C0F7FF03C045
:100FB000F8FF0A6A0B6A09D005500A24D96EDA6A6A
:100FC000DF50F56E0D000A4A0B2A0650076E086ABC
:100FD00007500A5C0B50800A096E0850800A0958B5
:100FE000EBE30A00840E7F6EF29E550E7E6EAA0E13
:100FF0007E6E7F82F28EB7ACFED7B79C7F941200D4
:020000040020DA
:08000000FFFFFFFFFFFFFFFF00
:020000040030CA
:0E00000015586F20FF8991FF0FC00FE00F40D1
:00000001FF
