:1000000002EF00F0DAEF05F0FF00FF00FF00FF0055
:100B5000FF00FF00FF00FF00930ED01200EF08F02F
:100B60001200016EACA2FED701C0ADFFACB2120004
:100B7000FDD79EAAFED7ABB402D0ABA202D0AB98F1
:100B8000AB88AE501200949C948EAC98AC94A7960F
:100B9000670EAF6EAC8AAB8EAB8812009EAA000CBB
:100BA0009EAAFED7ABB402D0ABA202D0AB98AB8862
:100BB000AE50120000EE60F0400EEE6AE806FDE175
:100BC00000EE1EF00F0EEE6AE806FDE1000EF86E74
:100BD000000184EF07F0036E046A056A046A056A7F
:100BE00007D003500424D96EDA6ADF68044A052A64
:100BF0000150045C02500558D8B01200F2D7056EBF
:100C0000046A05500424026E02C0F6FF0F0EF76E50
:100C10000800F5500BE005500424026E02C0F6FFF8
:100C20000F0EF76E0800F550B1EC05F0042A04042D
:100C3000026E05500224036E03C0F6FF0F0EF76E1E
:100C40000800F550D8B41200DCD7106E49D1010E5F
:100C5000FFEC05F01E6A1F6A206A216A1200550E19
:100C6000B1EF05F0B9EC05F0510AD8A41200B9ECC7
:100C700005F0570AD8A41200B9EC05F0450AD8A42B
:100C80001200B9EC05F0520AD8A41200B9EC05F034
:100C9000540AD8A41200116A100E126E136A146A54
:100CA00011C001F012C002F013C003F014C004F030
:100CB000E8EC07F0400E1126000E12221322142237
:100CC000145002E11304ECE3EE0EB1EF05F0B9ECC1
:100CD00005F0510AD8A41200B9EC05F0570AD8A4BF
:100CE0001200B9EC05F0450AD8A41200B9EC05F0E1
:100CF000520AD8A41200B9EC05F0540A01E0DDD084
:100D0000B9EC05F03A0A01E0C7D0B9EC05F0286E5D
:100D100028502926B9EC05F02C6E2C502926B9EC68
:100D200005F02C6E2C502926B9EC05F02C6E2C50B9
:100D300029262CC026F0276A2650271054E12B6A5A
:100D400010D02250600FD96EDA6AB9EC05F0DF6E70
:100D50002250600FD96EDA6ADF502926224A232AF0
:100D60002B2A2B50285CEDE22206D8A0230629501E
:100D700031E1235003E1400E225C23E30C6A100EA4
:100D80000D6E24C00EF025C00FF00C500E260D5035
:100D90000F220EC001F00FC002F0036A046A600E59
:100DA000056E400E066EBAEC07F0026A400E016E48
:100DB000600EEBEC05F0226A236A400E2426000E3A
:100DC0002522CC0EB1EC05F0296A1E6A1F6A206A42
:100DD000216A04D0CE0EB1EC05F0296A296A276A8F
:100DE000010E266E5BD0020E2618271018E12B6A22
:100DF00004D0B9EC05F029262B2A2B50285CF9E207
:100E0000295008E1CC0EB1EC05F01E6A1F6A206A79
:100E1000216A03D0CE0EB1EC05F0296A3FD0040E52
:100E20002618271013E12B6A04D0B9EC05F0292607
:100E30002B2A2B50285CF9E2295004E1CC0EB1ECAE
:100E400005F0E3D7CE0EB1EC05F0E7D72604271066
:100E500025E10C6A100E0D6E24C00EF025C00FF0B7
:100E60000C500E260D500F220EC001F00FC002F0E4
:100E7000036A046A600E056E400E066EBAEC07F057
:100E8000026A400E016E600EEBEC05F0010E2A6E58
:100E9000F00EB1EC05F002D0010E2A6E1E2A000EF3
:100EA0001F22202221222A0401E02AD7640E1E18C4
:100EB0001F102010211001E123D7246A256A226A1D
:100EC000236A286A266A276A1E6A1F6A206A216ABC
:100ED0002A6A296A1200760EB1EC05F0ACEF05F033
:100EE0001050310A01E1BED6030A01E1F0D6010A31
:100EF000F2E0990A01E1B3D66B0AD8A41200A7D692
:100F000000312E302E6100001A6A1B6A1C6A1D6AAD
:100F1000D38CD38AD388D3849B8C9390C3EC05F075
:100F20001A280DE1030E1B181C101D10D8A407D0A1
:100F30008A801A2A000E1B221C221D2216D01A2873
:100F400008E12F0E1B181C101D10D8A402D08A9087
:100F5000F0D71A28EEE11B28ECE11C041D10D8A4E0
:100F6000E8D71A6A1B6A1C6A1D6ACEEC05F025ECEC
:100F700006F0D6D7B79C01C0F6FF02C0F7FF03C04A
:100F8000F8FFA40E7F6EF29E0A6A0B6A09D0055024
:100F90000A24D96EDA6ADF50F56E0D000A4A0B2A70
:100FA0000650076E086A07500A5C0B50800A096EEB
:100FB0000850800A0958EBE30A00550E7E6EAA0E0F
:100FC0007E6E7F82F28EB7ACFED7B79C7F94120004
:100FD000B79C01C0F6FF02C0F7FF03C0F8FFA40EE4
:100FE0007F6E7F88550E7E6EAA0E7E6E7F827F9802
:100FF000F28EB7ACFED7B79C7F94F29E1200FF0032
:020000040020DA
:08000000FFFFFFFFFFFFFFFF00
:020000040030CA
:0E00000015586F20FF8991FF0FC00FE00F40D1
:00000001FF
