:1000000002EF00F05DEF08F0FF00FF00FF00FF00CF
:100A0000FF00FF00FF00FF00FF00FF00FF00016E7E
:100A1000ACA2FED701C0ADFFACB21200FDD79EAABA
:100A2000FED7ABB402D0ABA202D0AB98AB88AE502D
:100A30001200949C948EAC98AC94A796670EAF6EFF
:100A4000AC8AAB8EAB881200146E4AD2010EF9EC60
:100A500007F0266A276A286A296A1200550E07EFEE
:100A600005F00FEC05F0510AD8A412000FEC05F0C8
:100A7000570AD8A412000FEC05F0450AD8A41200BA
:100A80000FEC05F0520AD8A412000FEC05F0540A3E
:100A9000D8A41200156A110E166E176A186A15C0CE
:100AA00001F016C002F017C003F018C004F01FECEC
:100AB00008F0400E1526000E162217221822185094
:100AC00002E11704ECE3EE0E07EF05F00FEC05F082
:100AD000510AD8A412000FEC05F0570AD8A412004E
:100AE0000FEC05F0450AD8A412000FEC05F0520AED
:100AF000D8A412000FEC05F0540A01E0DBD10FEC92
:100B000005F03A0A01E0C7D10FEC05F02E6E2E5029
:100B10002F260FEC05F0336E33502F2633502D6EF9
:100B20002C6A0FEC05F0336E33502F2633502C1205
:100B30000FEC05F0336E33502F2633C032F09CD1CA
:100B4000225023102410251035E12CC022F02DC096
:100B500023F0246A256A22C034F03F0E016E34501F
:100B60004AEC08F00C6E0C380F0B346E3450100D3C
:100B7000F3CF2AF0F4CF2BF034500C6E0D6A0C3A00
:100B80000D3AF00E0D160C500F0B0D12F00E0C1648
:100B90000CC00EF00DC00FF0000E0FBEFF0E106E59
:100BA000116E0E50225E0F50235A1050245A1150CD
:100BB000255A47D02C500C6E2D500D6E0E6A0F6AC0
:100BC000400E2224106E000E2320116E000E2420F1
:100BD000126E000E2520136E0C50105C0D50115833
:100BE0000E5012580F5013582CE222C001F023C0AF
:100BF00002F024C003F025C004F01FEC08F022C06E
:100C000001F023C002F024C003F025C004F0600E00
:100C1000056E400E066ECBEC07F0026A400E016EC8
:100C2000600E36EC08F02CC022F02DC023F0246AB0
:100C3000256A22C034F03F0E016E34504AEC08F0B1
:100C400091D7316A10D02A50600FD96EDA6A0FEC52
:100C500005F0DF6E2A50600FD96EDA6ADF502F265A
:100C60002A4A2B2A312A31502E5CEDE22A06D8A0DE
:100C70002B062F5032E12B5003E1400E2A5C24E377
:100C800022C001F023C002F024C003F025C004F00C
:100C90001FEC08F022C001F023C002F024C003F0D2
:100CA00025C004F0600E056E400E066ECBEC07F01A
:100CB000226A236A246A256A026A400E016E600E67
:100CC00036EC08F02A6A2B6ACC0E07EC05F02F6A86
:100CD000266A276A286A296A04D0CE0E07EC05F036
:100CE0002F6A2F6A010E326ED6D02A502B1018E0D0
:100CF00022C001F023C002F024C003F025C004F09C
:100D00001FEC08F022C001F023C002F024C003F061
:100D100025C004F0600E056E400E066ECBEC07F0A9
:100D2000026A400E016E600E36EC08F0010E306E65
:100D3000F00E07EC05F0AFD00FEC05F0336E33503A
:100D40002F2633502D6E2C6A0FEC05F0336E335086
:100D50002F2633502C122F5008E1CC0E07EC05F053
:100D6000266A276A286A296A03D0CE0E07EC05F0A6
:100D70002F6A91D02A502B101EE022C001F023C010
:100D800002F024C003F025C004F01FEC08F022C0DC
:100D900001F023C002F024C003F025C004F0600E6F
:100DA000056E400E066ECBEC07F0026A400E016E37
:100DB000600E36EC08F00FEC05F0336E33502F2642
:100DC00033C00CF00D6A0E6A0F6A0CC00FF00E6A89
:100DD0000D6A0C6A0CC022F00DC023F00EC024F086
:100DE0000FC025F00FEC05F0336E33502F2633C0C3
:100DF0000CF00D6A0E6A0F6A0DC00FF00CC00EF0F9
:100E00000D6A0C6A0C5022120D5023120E5024123F
:100E10000F50251222C034F03F0E016E34504AECC0
:100E200008F00C6E0C380F0B346E34500C6E0D6ADB
:100E30000C3A0D3AF00E0D160C500F0B0D12F00E71
:100E40000C160CC00EF00DC00FF0000E0FBEFF0E02
:100E5000106E116E0E50225E0F50235A1050245AFD
:100E60001150255A2F5004E1CC0E07EC05F078D72D
:100E7000CE0E07EC05F07CD7325001E161D6010AB5
:100E800001E133D7030A01E157D7010A04E0070A59
:100E900001E170D7010A262A000E272228222922E2
:100EA000300401E02CD6640E2618271028102910D3
:100EB00001E125D62A6A2B6A2C6A2D6A2E6A326ACB
:100EC000266A276A286A296A306A226A236A246A9B
:100ED000256A2F6A1200760E07EC05F07AEF08F00B
:100EE0001450310A01E1BDD5030A01E1EFD5010A31
:100EF000F2E0990A01E1B2D56B0AD8A41200A6D596
:100F000000312E302E610000D38CD38AD388D38455
:100F10009B8C939019EC05F01E6A1F6A206A216A67
:100F20001E50600FD96EDA6ADF681E2A000E1F227B
:100F300020222122215020101F1003E1400E1E5CB0
:100F4000EFE31E280DE1030E1F1820102110D8A476
:100F500007D08A801E2A000E1F222022212216D0AE
:100F60001E2808E12F0E1F1820102110D8A402D02F
:100F70008A90F0D71E28EEE11F28ECE12004211012
:100F8000D8A4E8D71E6A1F6A206A216A6EEC08F0AE
:100F900024EC05F0D6D7B79C01C0F6FF02C0F7FFDE
:100FA00003C0F8FF0A6A0B6A09D005500A24D96EFB
:100FB000DA6ADF50F56E0D000A4A0B2A0650076EFA
:100FC000086A07500A5C0B50800A096E0850800AB4
:100FD0000958EBE30A00840E7F6EF29E550E7E6E7A
:100FE000AA0E7E6E7F82F28EB7ACFED7B79C7F943E
:100FF0001200056E046A05500424026E02C0F6FF5A
:101000000F0EF76E0800F5500BE005500424026E39
:1010100002C0F6FF0F0EF76E0800F55007EC05F062
:10102000042A0404026E05500224036E03C0F6FF76
:101030000F0EF76E0800F550D8B41200DCD7B79C3D
:101040000150C00BF66E02C0F7FF03C0F8FF940E0C
:101050007F6E550E7E6EAA0E7E6E7F82F28EB7ACCC
:10106000FED7B79C7F947F98F29E1200056E036AAC
:10107000046A036A046A07D005500324D96EDA6A49
:10108000DF68034A042A0150035C02500458D8B0B8
:101090001200F2D7026E080E036E046AD890023472
:1010A0000434046ED89002360150045C02E301500F
:1010B000045E032EF3D70450120000EE60F0400EE1
:1010C000EE6AE806FDE100EE22F0130EEE6AE80695
:1010D000FDE1000EF86E000184EF07F09EAA000CFF
:1010E0009EAAFED7ABB402D0ABA202D0AB98AB881D
:1010F000AE501200930ED01280EF08F01200FF00E5
:020000040020DA
:08000000FFFFFFFFFFFFFFFF00
:020000040030CA
:0E00000015586F20FF8991FF0FC00FE00F40D1
:00000001FF
